:100000000C942A000C9447000C9447000C94470071
:100010000C9447000C9447000C9447000C94470044
:100020000C9447000C9447000C94B4010C944700C6
:100030000C9447000C9447000C9447000C94470024
:100040000C9447000C9447000C9447000C94470014
:100050000C94470011241FBECFE5D8E0DEBFCDBF12
:1000600012E0A0E6B0E0E4E1F8E102C005900D92F4
:10007000AA38B107D9F722E0AAE8B2E001C01D9280
:10008000A739B207E1F70E940E050C94080C0C94F6
:100090000000413091F018F0423029F10895E82F26
:1000A000F0E0EE0FFF1FE05BFD4F0190F081E02DCF
:1000B0008081609568236083089590E0880F991F80
:1000C000FC01E05BFD4F0190F081E02D3081262F97
:1000D000209523232083885B9D4FDC01ED91FC91CB
:1000E0008081682BE8CFE82FF0E0EE0FFF1FE05B88
:1000F000FD4F0190F081E02DF3CF442319F0413002
:1001000079F00895E82FF0E0EE0FFF1FE85BFD4F58
:100110000190F081E02D80816095682360830895CF
:10012000E82FF0E0EE0FFF1FE85BFD4F0190F0813C
:10013000E02D8081682BF2CFE82FF0E0EE0FFF1F5B
:10014000E85BFD4F0190F081E02D8081682760839E
:100150000895E82FF0E0EE0FFF1FE05CFD4F0190E7
:10016000F081E02D8081682319F4FA01108208954E
:1001700081E0FA018083089512BE83B790919602C0
:10018000892B83BF08951DBC1CBC8EB59FB52091E3
:100190009502822B9FBD8EBD0895882339F0813052
:1001A00021F47FBD6EBD40939502089568367105B8
:1001B00029F4433318F0425360E670E063BF409384
:1001C00096020895CF92DF92EF92FF926A017B012F
:1001D000811112C08AEF8CBF0E94BC0081E0C81A56
:1001E000D108E108F1088FEFC816D806E806F8062E
:1001F00041F483B7887F83BFFF90EF90DF90CF906B
:10020000089508B601FEFDCF88B7826088BFE6CFAB
:100210000F93882329F08130C9F40F910C94C30007
:100220008AEF8CBF409390025093910260939202A8
:100230007093930230938F0220938E020093940266
:1002400089B7826089BF0F910C94BC000F9108950B
:10025000811101C06CBF0895882319F0813019F015
:1002600008950C94BC000C94C300882319F08130CD
:1002700029F0089583B7887F83BF08958EB59FB511
:10028000887F9FBD8EBD0895AF92BF92CF92DF92BF
:10029000EF92FF920F931F93CF93DF9300D000D084
:1002A00000D0CDB7DEB75C018B01CE0101967C0199
:1002B00086E0F70111928A95E9F78EB59FB58064C3
:1002C0009FBD8EBD0E94C300F7019E01295F3F4F75
:1002D00008B605FEFDCF86B597B58193919388B793
:1002E000806288BF8EB59FB540E484279FBD8EBDD8
:1002F000E217F30769F78EB59FB5887F9FBD8EBD66
:1003000089819A81CD80DE80C81AD90AF12CE12C2E
:100310002B813C81281B390BA4E6B0E00E94CF065C
:10032000A70196010E94AD06F501208360E970EDFA
:1003300083E090E0A70196010E94AD06F8012083BA
:1003400031834283538326960FB6F894DEBF0FBEE7
:10035000CDBFDF91CF911F910F91FF90EF90DF9074
:10036000CF90BF90AF9008951F920F920FB60F924B
:1003700011242F933F934F935F936F937F938F93AA
:100380009F93AF93BF93EF93FF9380918A029091D5
:100390008B02A0918C02B0918D020196A11DB11D1E
:1003A00080938A0290938B02A0938C02B0938D026B
:1003B000409190025091910260919202709193024B
:1003C00084179507A607B707B1F4E0918E02F09164
:1003D0008F02309781F0099510928A0210928B0259
:1003E00010928C0210928D0280919402811103C0B0
:1003F00083B7887F83BFFF91EF91BF91AF919F91AA
:100400008F917F916F915F914F913F912F910F90BD
:100410000FBE0F901F9018958BBBA89AA998AA9A07
:100420008AE18A95F1F700C0AA988AE18A95F1F7E6
:1004300000C008958BBBA898A998AA9A8AE18A95CA
:10044000F1F700C0AA988AE18A95F1F700C00895F3
:100450008FEF8ABB84BB85B3886385BB2FEF89EFA1
:1004600090E0215080409040E1F700C000008EE312
:100470000E941A0280E40E941A0288EB0E941A026B
:1004800080EC0E941A028FE30C941A020F931F93C0
:10049000CF9385B3886185BBC8EB8C2F0E941A026D
:1004A00000E410E080E00E940C0201501109D1F735
:1004B000CF5FC03C91F780E40E941A0288EBCF9195
:1004C0001F910F910C941A022F923F924F925F92BC
:1004D0006F927F928F929F92AF92BF92CF92DF9254
:1004E000EF92FF920F931F93CF93DF93CDB7DEB7B9
:1004F00028970FB6F894DEBF0FBECDBF6D8379830A
:10050000082F880F110B480128EB820E911C882DB3
:100510000E941A0220E82003C001219F900D11249F
:10052000FC01E550FC4FFC83EB832D8039801F825A
:100530001886712C2FE3622E10E000E038E0432E85
:1005400040E1542EB12CA12CF1018081811119C000
:1005500028960FB6F894DEBF0FBECDBFDF91CF91C6
:100560001F910F91FF90EF90DF90CF90BF90AF90D1
:100570009F908F907F906F905F904F903F902F90C3
:1005800008952B813C812017310710F3803209F444
:1005900051C0EE24E394F12CC701800F911F9A8380
:1005A000898320E030E040E05FE36F817885872D2C
:1005B000962D0E94F3066B018D839E830E94D607C1
:1005C0007695762F662777956795E981FA81E61704
:1005D000F70711F5F5E0EF16F10431F180E40E9420
:1005E0001A0285B3842585BB85B3852585BBC501E6
:1005F000B4010E940C082F813885472D562D0E948A
:10060000F3060E94D607862F0E940C02CF82D8865E
:100610007D806E8009811A812FEFE21AF20A36E09E
:10062000E316F10409F0B8CF8B819C818017910704
:1006300008F48ECFF10180816801F12CE12C803229
:1006400009F04EC0F1012081022E000C330B205224
:100650003109F5E0F29FC001F39F900D1124805AFB
:100660009F4FFC01EE0DFF1D80810E940C022FEFB9
:10067000C21AD20AC6018F739927892B19F585B33F
:10068000842585BB85B3852585BBC501B4010E9442
:100690000C082F813885472D562D0E94F3060E94A5
:1006A000DD07862F0E941A0220E030E040E05FE381
:1006B0006F817885872D962D0E94F3066F8378874A
:1006C000782E692E3FEFE31AF30A45E0E416F104B1
:1006D00009F0B8CF0B5F1F4F8FEF281A380A34CFBD
:1006E000F1012081022E000C330B20523109F5E07C
:1006F000F29FC001F39F900D1124805A9F4FFC017F
:10070000EE0DFF1D80810E940C022FEFC21AD20A4B
:10071000C6018F739927892B19F585B3842585BB6D
:1007200085B3852585BBC501B4010E940C082F81C6
:100730003885472D562D0E94F3060E94DD07862F2F
:100740000E941A0220E030E040E05FE36F8178858C
:10075000872D962D0E94F3066F837887782E692E59
:100760003FEFE31AF30A45E0E416F10409F0B8CFCD
:1007700080E00E940C020A5F1F4FC8018F73992707
:10078000892B09F0A9CF85B3842585BB85B3852541
:1007900085BBC501B4010E940C082F813885472D07
:1007A000562D0E94F3060E94DD07862F0E941A0232
:1007B00020E030E040E05FE36F817885872D962D63
:1007C0000E94F3066F837887782E692E85CF4F922B
:1007D0005F926F927F928F929F92AF92BF92EF92B1
:1007E000FF920F931F93CF93DF935C014B017A012C
:1007F000E901FC01208131814281538160E070E098
:1008000080E89FE30E9464072B013C01F8014082CD
:1008100051826282738220E030E048EC52E4F401BD
:1008200060817181828193810E946407A30192019A
:100830000E94C3089B01AC01F701208331834283EE
:100840005383F80160817181828193810E94F20655
:10085000688379838A839B83F50180809180A2805D
:10086000B38020E030E040EE51E4C501B4010E94C5
:10087000BE0818160CF047C020E030E04CE852E407
:10088000C501B4010E945F0787FF3DC020E030E052
:1008900046E953E4F70160817181828193810E946E
:1008A000C308F701608371838283938320E030E083
:1008B00046E953E4688179818A819B810E94C3085B
:1008C000688379838A839B8320E034E244E759E498
:1008D000F80160817181828193810E94C308F801CF
:1008E0006083718382839383DF91CF911F910F91F6
:1008F000FF90EF90BF90AF909F908F907F906F9000
:100900005F904F900895F70140805180628073801E
:1009100020E030E044EB52E4C501B4010E94BE087F
:100920001816E4F420E030E046E953E4C501B401D0
:100930000E945F0787FF12C020E030E046E155E4E7
:10094000C301B2010E94C308F701608371838283EF
:10095000938320E030E046E155E4ACCF20E030E086
:100960004FEA53E4C501B4010E94BE081816E4F42E
:1009700020E030E84BEB54E4C501B4010E945F076E
:1009800087FF12C020E030E04AEF55E4C301B20116
:100990000E94C308F701608371838283938320E000
:1009A00030E04AEF55E486CF20E030E04AEF54E4EF
:1009B000C501B4010E94BE081816E4F420E030EA34
:1009C0004CE056E4C501B4010E945F0787FF12C0E6
:1009D00020E038EB48E057E4C301B2010E94C308AD
:1009E000F701608371838283938320E038EB48E0D2
:1009F00057E460CF20E038EE4DEF57E4C301B20179
:100A00000E94C308F701608371838283938320E08F
:100A100038EE4DEF57E44ECF0C941A02CF93DF938C
:100A2000CDB7DEB7CB59D1090FB6F894DEBF0FBEF4
:100A3000CDBF0E9428020E94460242E068E081E0A9
:100A40000E94490040E060E483E00E94490044E0E5
:100A500068E670E080E00E94CD0043E070E060E076
:100A600081E00E94CD0080E00E942C0160E880E0DF
:100A70000E942801BE0165577F4FCE0185569F4FCA
:100A80000E944401C556DF4FD880CB59D040ED2C91
:100A9000F12CC557DF4F08811981CB58D040B801E0
:100AA000012E000C880B990B0E940E08C957DF4FCE
:100AB000688379838A839B83C758D040B701FF0C32
:100AC000880B990B0E940E08CD57DF4F68837983FE
:100AD0008A839B83C358D040093E83E018070CF4F7
:100AE00002C1C80168EE73E00E9499068B0140E0E4
:100AF00060E182E00E947D0041E068E082E00E94C7
:100B00007D0068E572E080E00E94640241E060E1FF
:100B100082E00E947D0040E068E082E00E947D006B
:100B200066E672E080E00E9464021F92DF929DE719
:100B3000E92E92E0F92EFF92EF926E0193E3C90E37
:100B4000D11CDF92CF920E9430091F930F93FF9226
:100B5000EF928E010F5F1F4F1F930F930E9430097A
:100B600040E060E182E00E947D0041E068E082E0D8
:100B70000E947D008FE590E00E940C05B80180E0A6
:100B80000E94640241E060E182E00E947D0040E05A
:100B900068E082E00E947D0089E690E00E940C05FA
:100BA000B60180E00E94640240E060E182E00E94C1
:100BB0007D0041E068E082E00E947D0080E490E0FA
:100BC0000E940C0502571F4F9E012D563F4FAE014C
:100BD00049565F4FBE016D577F4FCE0189579F4FDA
:100BE0000E94E70360E872E082E00E946402C1575D
:100BF000DF4F688179818A819B81CF58D0400E94E4
:100C0000D6077F936F93FF92EF920A5211091F93B9
:100C10000F930E9430098DE590E00E940C05B80109
:100C200082E00E94640266E872E082E00E94640250
:100C300041E060E182E00E947D0041E068E082E006
:100C40000E947D0080E490E00E940C05C956DF4FB1
:100C500088809980AA80BB80C759D0407E01E9E78F
:100C6000EE0EF11C0FB6F894DEBF0FBECDBF8701AC
:100C70002DE2D22EB8016E197F09072E000C880BC9
:100C8000990B0E940E08A50194010E945F0787FD41
:100C900048C0CD56DF4F88809980AA80BB80C35959
:100CA000D0408E0101591F4F68018DE2782EB601A8
:100CB000601B710B072E000C880B990B0E940E080D
:100CC000A50194010E945F0787FD2FC080E490E09A
:100CD0000E940C05B70184E00E946402B80186E01E
:100CE0000E946402FFCF40E060E182E00E947D004C
:100CF00041E068E082E00E947D0061E772E080E010
:100D00000E94640241E060E182E00E947D0040E0D8
:100D100068E082E00E947D0086E490E00E940C057D
:100D2000FFCEF801D1928F01A5CFF60171926F012C
:100D3000BECF97FB072E16F4009407D077FD09D09D
:100D40000E94DE0607FC05D03EF4909581959F4FEA
:100D50000895709561957F4F0895A1E21A2EAA1B00
:100D6000BB1BFD010DC0AA1FBB1FEE1FFF1FA2175B
:100D7000B307E407F50720F0A21BB30BE40BF50B58
:100D8000661F771F881F991F1A9469F760957095E1
:100D9000809590959B01AC01BD01CF010895A29F64
:100DA000B001B39FC001A39F700D811D1124911D3F
:100DB000B29F700D811D1124911D0895AA1BBB1BAC
:100DC00051E107C0AA1FBB1FA617B70710F0A61B4B
:100DD000B70B881F991F5A95A9F780959095BC016C
:100DE000CD0108955058BB27AA270E940A070C94EA
:100DF00084080E94760838F00E947D0820F039F4BB
:100E00009F3F19F426F40C9473080EF4E095E7FB69
:100E10000C946D08E92F0E94950858F3BA176207E1
:100E200073078407950720F079F4A6F50C94B708AA
:100E30000EF4E0950B2EBA2FA02D0B01B9019001F5
:100E40000C01CA01A0011124FF27591B99F0593F39
:100E500050F4503E68F11A16F040A22F232F342F81
:100E60004427585FF3CF469537952795A795F040CF
:100E70005395C9F77EF41F16BA0B620B730B840BE4
:100E8000BAF09150A1F0FF0FBB1F661F771F881F9C
:100E9000C2F70EC0BA0F621F731F841F48F48795F4
:100EA00077956795B795F7959E3F08F0B0CF9395E6
:100EB000880F08F09927EE0F9795879508950E945F
:100EC000490808F481E008950E9478070C9484088A
:100ED0000E947D0858F00E94760840F029F45F3F98
:100EE00029F00C946D0851110C94B8080C947308F7
:100EF0000E94950868F39923B1F3552391F3951B4C
:100F0000550BBB27AA2762177307840738F09F5F2A
:100F10005F4F220F331F441FAA1FA9F335D00E2E97
:100F20003AF0E0E832D091505040E695001CCAF704
:100F30002BD0FE2F29D0660F771F881FBB1F2617C7
:100F400037074807AB07B0E809F0BB0B802DBF019E
:100F5000FF2793585F4F3AF09E3F510578F00C946D
:100F60006D080C94B8085F3FE4F3983ED4F386957F
:100F700077956795B795F7959F5FC9F7880F911D8E
:100F80009695879597F90895E1E0660F771F881F7A
:100F9000BB1F621773078407BA0720F0621B730B2D
:100FA000840BBA0BEE1F88F7E09508950E94DD07C9
:100FB0006894B1110C94B80808950E949D0888F0B7
:100FC0009F5798F0B92F9927B751B0F0E1F0660F0D
:100FD000771F881F991F1AF0BA95C9F714C0B1304E
:100FE00091F00E94B708B1E008950C94B708672FFC
:100FF000782F8827B85F39F0B93FCCF3869577957D
:101000006795B395D9F73EF4909580957095619565
:101010007F4F8F4F9F4F0895E89409C097FB3EF490
:1010200090958095709561957F4F8F4F9F4F992335
:10103000A9F0F92F96E9BB279395F69587957795B3
:101040006795B795F111F8CFFAF4BB0F11F460FF73
:101050001BC06F5F7F4F8F4F9F4F16C0882311F0CB
:1010600096E911C0772321F09EE8872F762F05C0DF
:10107000662371F096E8862F70E060E02AF09A957A
:10108000660F771F881FDAF7880F9695879597F96F
:101090000895990F0008550FAA0BE0E8FEEF161609
:1010A0001706E807F907C0F012161306E407F5075C
:1010B00098F0621B730B840B950B39F40A2661F0D0
:1010C000232B242B252B21F408950A2609F4A14073
:1010D000A6958FEF811D811D089597F99F6780E880
:1010E00070E060E008959FEF80EC089500240A947A
:1010F0001616170618060906089500240A941216F3
:101100001306140605060895092E0394000C11F425
:10111000882352F0BB0F40F4BF2B11F460FF04C0D2
:101120006F5F7F4F8F4F9F4F089557FD9058440F2B
:10113000551F59F05F3F71F04795880F97FB991F36
:1011400061F09F3F79F087950895121613061406F3
:10115000551FF2CF4695F1DF08C016161706180680
:10116000991FF1CF86957105610508940895E8945B
:10117000BB2766277727CB0197F908950E94490876
:1011800008F48FEF08950E94D6080C9484080E94FA
:10119000760838F00E947D0820F0952311F00C9419
:1011A0006D080C94730811240C94B8080E949508DB
:1011B00070F3959FC1F3950F50E0551F629FF001AA
:1011C000729FBB27F00DB11D639FAA27F00DB11DC3
:1011D000AA1F649F6627B00DA11D661F829F22274C
:1011E000B00DA11D621F739FB00DA11D621F839FD3
:1011F000A00D611D221F749F3327A00D611D231FA9
:10120000849F600D211D822F762F6A2F11249F57F6
:1012100050409AF0F1F088234AF0EE0FFF1FBB1FF9
:10122000661F771F881F91505040A9F79E3F5105B8
:1012300080F00C946D080C94B8085F3FE4F3983E7E
:10124000D4F3869577956795B795F795E7959F5F62
:10125000C1F7FE2B880F911D9695879597F90895F4
:10126000AEE0B0E0E6E3F9E00C94DF0B0D891E89F7
:1012700086E08C831A8309838FEF9FE79E838D839B
:10128000AE01475E5F4F6F89788DCE0101960E9457
:1012900053092F813885020F131FF80110822E96F3
:1012A000E4E00C94FB0BABE0B0E0E9E5F9E00C9472
:1012B000D10B7C013B018A01FC01178216828381DC
:1012C00081FFC8C1CE0101965C01F7019381F30152
:1012D00093FD859193FF81913F01882309F453C1C8
:1012E000853239F493FD859193FF81913F018532D9
:1012F00029F4B70190E00E94430BE7CF912C212CF9
:10130000312CFFE1F31538F08B3211F190F480327B
:1013100009F1833229F137FC3CC020ED280F2A3037
:1013200050F536FE20C08AE0989E200D1124922EA2
:1013300006C08D3291F0803371F7689430F8F30174
:1013400093FD859193FF81913F018111DACF21C0F7
:10135000689431F8689432F8F2CF689433F8EFCF9C
:10136000689434F8ECCFEAE02E9E200D1124222E52
:10137000689435F8E4CF8E3229F436FC04C16894C1
:1013800036F8DDCF8C3619F4689437F8D8CF883624
:10139000B1F2982F9F7D95549330E0F08336A1F100
:1013A0008337C1F1833509F063C02801F2E04F0EA5
:1013B000511CF801C080D180692D70E036FC02C05C
:1013C0006FEF7FEFC6010E942D0B4C01689437F838
:1013D00082010AC00C5F1F4FFFE3F98388248394C6
:1013E000912C6501E89437F833FE2DC0522C8114FE
:1013F000910471F5552009F468CFB70180E290E0BF
:101400000E94430B5A94F6CFF801808189830E5FC6
:101410001F4FE4CF2801F2E04F0E511CF801C080AD
:10142000D180692D70E036FC02C06FEF7FEFC601FE
:101430000E94380B4C018201D5CFB70180E290E0C9
:101440000E94430B2A942814190409F0B0F7CECF58
:10145000F60137FC859137FE81916F01B70190E06D
:101460000E94430B51105A94F1E08F1A9108BFCF9C
:10147000843619F0893609F077C0F80137FE6BC061
:1014800060817181828193810C5F1F4FF32DFF7604
:101490003F2E97FF09C090958095709561957F4F7D
:1014A0008F4F9F4F689437F82AE030E0A5010E94E3
:1014B000730BC82ECA188C2C432C36FE0CC0E89433
:1014C00040F8C91440F434FE05C032FC03C0F32DCB
:1014D000FE7E4F2E892C44FE95C0FE01EC0DF11DC1
:1014E0008081803309F087C0242D297E422E842DEF
:1014F0008870582E43FC95C040FE8FC09C2C8214EF
:1015000018F42C0C922C981844FE91C0B70180E37B
:1015100090E00E94430B42FE09C088E790E041FE44
:1015200002C088E590E0B7010E94430BC91408F49B
:101530008AC0CA94D12C9FEFC91AD90ACA0CDB1CE5
:10154000F60182916F01B70190E00E94430BAC1449
:10155000BD04B1F74FCF60817181072E000C880B5D
:10156000990B0E5F1F4F92CFD32CE894D4F82AE04A
:1015700030E0853739F1232D297FD22E8F3601F1C6
:1015800048F48835A9F0F701868197812B96E2E12E
:101590000C94ED0B803749F08837A9F7D4FE02C0D0
:1015A0006894D2F820E130E00DC06894D4F8F6CF0A
:1015B00034FE03C0822F8660D82E20E132E002C0C4
:1015C00028E030E0F801D7FE0FC060817181828190
:1015D00093810C5F1F4FA5010E94730BC82ECA1880
:1015E0003D2CE89437F867CF6081718190E080E00E
:1015F0000E5F1F4FF0CF42FC02C0839478CF8394DC
:10160000839475CF842D867809F471CFF6CFB70116
:1016100080E290E00E94430B83948214C0F3512C2B
:1016200073CF522C5818821408F46ECFF8CF842D43
:10163000867809F47BCF8BE241FE80E247FC8DE2A5
:10164000B70190E071CFB70180E390E00E94430BB7
:101650009A946CCF8FEF9FEF99CFFC01059061506A
:1016600070400110D8F7809590958E0F9F1F0895B8
:10167000FC016150704001900110D8F78095909561
:101680008E0F9F1F08950F931F93CF93DF93182FF3
:10169000092FEB018B8181FD09C01FEF0FEF812F17
:1016A000902FDF91CF911F910F91089582FF14C069
:1016B0002E813F818C819D81281739073CF4E88178
:1016C000F981CF0101969983888310838E819F8150
:1016D00001969F838E83E3CFE885F985812F099555
:1016E000892BA1F3DACFFA01AA27283051F1203152
:1016F00081F1E8946F936E7F6E5F7F4F8F4F9F4FA6
:10170000AF4FB1E03ED0B4E03CD0670F781F891FE7
:101710009A1FA11D680F791F8A1F911DA11D6A0FB5
:10172000711D811D911DA11D20D009F468943F9168
:101730002AE0269F11243019305D3193DEF6CF0167
:101740000895462F4770405D4193B3E00FD0C9F72D
:10175000F6CF462F4F70405D4A3318F0495D31FD9A
:101760004052419302D0A9F7EACFB4E0A6959795ED
:10177000879577956795BA95C9F7009761057105C3
:1017800008959B01AC010A2E06945795479537950D
:101790002795BA95C9F7620F731F841F951FA01D67
:1017A00008952F923F924F925F926F927F928F9205
:1017B0009F92AF92BF92CF92DF92EF92FF920F93E0
:1017C0001F93CF93DF93CDB7DEB7CA1BDB0B0FB6EA
:1017D000F894DEBF0FBECDBF09942A8839884888A7
:1017E0005F846E847D848C849B84AA84B984C8843D
:1017F000DF80EE80FD800C811B81AA81B981CE0F34
:10180000D11D0FB6F894DEBF0FBECDBFED01089518
:04181000F894FFCF7A
:10181400000000000000005F000000070007001443
:101824007F147F14242A7F2A122313086462364902
:101834005522500005030000001C224100004122F3
:101844001C0014083E081408083E08080050300024
:10185400000808080808006060000020100804025E
:101864003E5149453E00427F400042615149462174
:1018740041454B311814127F1027454545393C4AE0
:101884004949300171090503364949493606494930
:10189400291E003636000000563600000814224186
:1018A40000141414141400412214080201510906EE
:1018B400324979413E7E1111117E7F494949363EB4
:1018C400414141227F4141221C7F494949417F09CD
:1018D4000909013E4149497A7F0808087F00417F90
:1018E40041002040413F017F081422417F40404095
:1018F400407F020C027F7F0408107F3E4141413E3D
:101904007F090909063E4151215E7F09192946468E
:101914004949493101017F01013F4040403F1F20B7
:1019240040201F3F4038403F631408146307087089
:1019340008076151494543007F41410002040810F2
:10194400200041417F000402010204404040404025
:10195400000102040020545454787F484444383829
:1019640044444420384444487F3854545418087E2E
:101974000901020C5252523E7F0804047800447D4F
:1019840040002040443D007F1028440000417F4037
:10199400007C041804787C080404783844444438EF
:1019A4007C14141408081414187C7C0804040848D3
:1019B40054545420043F4440203C4040207C1C208C
:1019C40040201C3C4030403C44281028440C5050DB
:1019D400503C4464544C44000836410000007F00ED
:1019E400000041360800100808100878464146787F
:1019F40039003600330030003B0038003500320037
:101A04003A00370034003100467265713A202020D4
:101A140020204B487A00447574793A2020202025F0
:101A240000467265713A20202020487A002564001F
:0A1A340054696D653A0075730000F7
:00000001FF
